:020000040800F2
:1000000040040020010100087F0B00089909000846
:100010007D0B00087D010008DB0B000800000000DC
:10002000000000000000000000000000830B00083A
:100030007F01000800000000810B0008850B00080C
:100040001B0100081B0100081B0100081B01000820
:100050001B0100081B0100081B0100081B01000810
:100060001B0100081B0100081B0100081B01000800
:100070001B0100081B0100081B0100081B010008F0
:100080001B0100081B0100081B0100081B010008E0
:100090001B0100081B0100081B0100081B010008D0
:1000A0001B0100081B0100081B0100081B010008C0
:1000B0001B0100081B0100081B0100081B010008B0
:1000C0001B0100081B0100081B0100081B010008A0
:1000D0001B0100081B0100081B0100081B01000890
:1000E0001B0100081B0100081B010008DFF80CD0F1
:1000F00000F032F800480047A10F0008400400203B
:100100000648804706480047FEE7FEE7FEE7FEE7B1
:10011000FEE7FEE7FEE7FEE7FEE7FEE7D90B000895
:10012000ED000008D2B201E000F8012B491EFBD21D
:1001300070470022F6E710B513460A4604461946F2
:10014000FFF7F0FF204610BD421C10F8011B0029EC
:10015000FBD1801A70470000064C074D06E0E068AE
:1001600040F0010394E8070098471034AC42F6D3FE
:10017000FFF7C0FFE814000808150008FEE7704705
:1001800070B5044600F008F90546601C02D004482A
:100190000078044400F000F9401BA042FAD370BD7F
:1001A000300000202DE9F84FDFF8B891002409F164
:1001B000040A0AF1040B23460F270BF1040EC9E0D1
:1001C0000125A5402A40AA427DD1674ED1F804C03E
:1001D000ACEB0608B44532D014DCBCF1030F3AD0C6
:1001E00009DCBCF1000F2AD0BCF1010F1CD0BCF11E
:1001F000020F31D11DE0BCF1110F17D0BCF1120F6D
:100200002AD119E0B8F5881F19D006DCB8F5803F6F
:1002100015D0B8F5801F1FD111E0B8F5001F0ED022
:10022000B8F5041F18D10AE0CB6815E0CB681B1D98
:1002300012E0CB6808330FE0CB680C330CE08B681E
:100240002BB1012B4FF0080303D0456104E00423D8
:1002500002E0056100E00023FF2A01D8064601E024
:1002600000F104064FEA840501D9A5F12005D6F86E
:10027000008007FA05FC28EA0C0803FA05F548EAAD
:100280000508C6F800804D68ED0062D5374DAE69AF
:1002900046F00106AE61AD6924F0030605F00105E4
:1002A0000095334D06EB050CDCF80850A607360F19
:1002B00007FA06F825EA0805DFF8B880404503D1BB
:1002C0004FF0000817E044E0DFF8AC80404502D171
:1002D0004FF001080FE0DFF8A480404502D14FF055
:1002E000020808E0DFF89880404502D14FF003088B
:1002F00001E04FF0040808FA06F848EA0508CCF8CF
:1003000008804D68D9F80060ED034D4601D51643CD
:1003100000E096432E604D68DAF80060AD03554664
:1003200001D5164300E096432E604D68DBF800606F
:10033000ED025D4601D5164300E096432E604D6800
:10034000DEF80060AD02754601D5164300E0964325
:100350002E60641C0D682A46E5407FF431AFBDE88D
:10036000F88F00000004014000001110001002404E
:100370000000014000080140000C01400010014055
:10038000001401408068084000D0012070470AB185
:10039000016170470904FBE701488068704700006D
:1003A0003000002002488168027811448160704763
:1003B00030000020074810B5016841F010010160CD
:1003C000032000F067F8002000F006F800F024F8A1
:1003D000002010BD0020024070B50D4D04464FF4C2
:1003E0007A712878B1FBF0F00A490968B1FBF0F0A6
:1003F00000F0BEFA48B9102C07D200222146501E48
:1004000000F028F800206C6070BD012070BD000075
:10041000300000203C0000200C4808B5816941F004
:1004200001018161816901F001010091C16941F01F
:100430008051C161C06900F080500090044841685B
:1004400021F0E06141F00071416008BD0010024000
:1004500000000140F0B40E4B1B680C46C3F30223AE
:10046000C3F10705042D00D90425191D072901D260
:10047000002300E0DB1E012606FA05F1491E21409B
:1004800099409E40761E16403143F0BC00F0A6BB5A
:100490000CED00E0064900F0070208684FF6FF0384
:1004A000184040EA0220034A1043086070470000E9
:1004B0000CED00E00000FA052DE9F0470F460500BD
:1004C00061D0434E306800F00700B84209D230686E
:1004D00020F0070038433060306800F00700B84271
:1004E00051D128683B4C810712D5400703D560687D
:1004F00040F4E06060602878000703D5606840F44D
:10050000605060606068A96820F0F0000843606097
:100510002878C00728D06868012810D021680228F0
:1005200010D0890700292EDA616821F00301014308
:100530006160FFF731FF804641F288390DE02168A4
:100540008903EFE78901EDE7FFF726FFA0EB08013C
:10055000494502D90320BDE8F0876068696800F06A
:100560000C00B0EB810FEFD1306800F00700B8420B
:100570000BD9306820F0070038433060306800F055
:100580000700B84201D00120E5E72878400705D5EB
:100590006068E96820F4E06008436060287800073C
:1005A00006D56068296920F4605040EAC1006060A7
:1005B00000F018F86168084AC1F30311515CC840A3
:1005C0000649086006480068FFF706FF0020C2E7FA
:1005D0000020024000100240D81400083C00002017
:1005E0003400002012A185B00FC98DE80F0014A0BF
:1005F000144A006804905168134801F00C03042B5E
:1006000010D0082B0ED1C1F38343C9031DF803009A
:100610000AD5516804AAC1F34041515C0A4A5043CB
:10062000B0FBF1F005B0704708494843FAE7000015
:1006300002030405060708090A0B0C0D0E0F101023
:10064000010200000010024000127A0000093D0083
:100650002DE9F84F040070D02078C04DC00749D074
:100660006868C0F38100012807D06868C0F3810082
:10067000022809D16868C00306D52868800339D5E7
:1006800060680028E7D035E06068B0F5803F0BD0A7
:1006900010B1B0F5A02F11D0286820F48030286068
:1006A000286820F4802002E0286840F48030286028
:1006B000606890B1FFF770FE06460AE0286840F4D3
:1006C00080202860F0E700BFFFF766FE801B6428EB
:1006D00073D828688003F7D50CE0FFF75DFE064667
:1006E00005E000BFFFF758FE801B6428F0D828689B
:1006F0008003F7D420789A4E80074FF001094FF01D
:10070000000839D5686810F00C0F07D06868C0F38E
:100710008100022809D16868C00306D428688007D0
:1007200014D52069012808D110E02069B0B1C6F8BD
:100730000090FFF731FE074605E00AE1FFF72CFEC7
:10074000C01B0228C4D828688007F7D528686169CB
:1007500020F0F80040EAC10028600DE0C6F80080F3
:10076000FFF71AFE074604E0FFF716FEC01B02283B
:1007700023D828688007F7D4207800072CD579483B
:10078000A169D9B1C0F80090FFF706FE074604E062
:10079000FFF702FEC01B02280FD8686A8007F7D552
:1007A00071484FF4FA510068B0FBF1F0009000BFBF
:1007B0000098411E0091FAD20EE080E0C0F800805F
:1007C000FFF7EAFD074604E0FFF7E6FDC01B02283D
:1007D00075D8686A8007F7D42078400760D5E86943
:1007E0000027C00008D4E86940F08050E861E8695B
:1007F000012700F0805000905C480168C90513D4BF
:100800000168834641F480710160FFF7C5FD8246AF
:1008100006E000BFFFF7C0FDA0EB0A0064284ED839
:10082000DBF80000C005F5D5E06801280AD008B162
:10083000052813D0286A20F001002862286A20F0D9
:10084000040002E0286A40F001002862E06841F2FA
:10085000883B98B1FFF7A0FD82460BE0286A40F084
:1008600004002862EEE700BFFFF796FDA0EB0A0147
:1008700059455AD8286A8007F6D50CE0FFF78CFD59
:10088000824605E0FFF788FDA0EB0A0159454CD8E8
:10089000286A8007F6D41FB1E86920F08050E8612B
:1008A000E06988B36968C1F38101022944D0022854
:1008B000C6F8608004D0FFF76FFD044638E034E0EE
:1008C000FFF76AFD074604E0FFF766FDC01B02283C
:1008D0002BD828688001F7D4206AB0F5803F05D175
:1008E0006868A16820F4003008436860D4E9080112
:1008F0000843696821F4741108436860C6F8609081
:10090000FFF74AFD044606E025E000BFFFF744FD7F
:10091000001B022809D828688001F7D51BE000BF1A
:10092000FFF73AFD001B022802D90320BDE8F88F2B
:1009300028688001F4D40EE00128F7D06868226AA4
:1009400000F48031914204D1616A00F47010884251
:1009500001D00120EAE70020E8E700000010024093
:1009600000004242800442423C00002000700040EF
:1009700010B5401EB0F1807F01D3012010BD4FF0B3
:10098000E02460610F21601700F028F90020A061C9
:1009900007202061002010BDFEE710B500F014F81C
:1009A000332000F0A9F9322000F0A6F9282000F049
:1009B000A3F9012000F0A0F90C2000F09DF9BDE89A
:1009C0001040062000F098B92DE9F04186B02F487C
:1009D00000250295816941F004018161816901F07E
:1009E00004010491816941F008018161816901F08C
:1009F00008010491816941F010018161806901243D
:100A000000F0100004904FF40050CDE90004DFF82E
:100A100080800326694603964046FFF7C3FBA00388
:100A20008DE8710069464046FFF7BCFBE70301AA69
:100A3000009782E8700069464046FFF7B3FB00224A
:100A400039464046FFF7A3FC08208DE87100114F9E
:100A500069463846FFF7A6FB04208DE87100694619
:100A60003846FFF79FFB02208DE871006946384643
:100A7000FFF798FB01AA009482E8700069463846A7
:100A8000FFF790FB06B0BDE8F081000000100240C7
:100A9000001001400008014031B14030C0B240F0C8
:100AA000800000BF00F028B940F08000FAE770B580
:100AB0000546002404E0285D00F034F9641CE4B22B
:100AC0002846FFF741FBA042F5D870BD2DE9F04361
:100AD00085B000242648009401940294039481690F
:100AE00041F020018161816901F020010491816957
:100AF00041F004018161816901F00401049181697F
:100B000041F0080181618069DFF8688000F0080029
:100B100049F6C0750490002229464046FFF737FC8D
:100B2000DFF854904FF61B47002239464846FFF73E
:100B30002EFC0095022601250396CDE90154694655
:100B40004046FFF72FFB00970396CDE90154694615
:100B50004846FFF727FB4FF4F070CDE900046946E3
:100B600048460294FFF71EFB05B0BDE8F083000085
:100B70000010024000080140000C0140FEE7FEE7C3
:100B800070477047FFF70EBC10B590B0282168463B
:100B9000FFF7CFFA14210AA8FFF7CBFA0220009042
:100BA0000120049010200024059007946846FFF768
:100BB0004FFD08B172B6FEE70F20CDE90A040C9490
:100BC0000D9400210AA80E94FFF776FC002801D0AE
:100BD00072B6FEE710B010BD7047FEE70907090EB8
:100BE000002804DB00F1E02080F80014704700F0DA
:100BF0000F0000F1E02080F8141D704702E008C8E3
:100C0000121F08C1002AFAD170477047002001E086
:100C100001C1121F002AFBD17047000070B51B4DA7
:100C2000044600F001024FF480712846FFF7AFFB45
:100C3000C4F3400269152846FFF7A9FBC4F38002FC
:100C400029152846FFF7A3FBC4F3C002E914284680
:100C5000FFF79DFBC4F30012A9142846FFF797FB8A
:100C6000C4F340124FF400412846FFF790FB084DB3
:100C7000C4F3801208212846FFF789FBC4F3C01291
:100C80002846BDE870401021FFF781BB00080140F5
:100C9000000C01402DE9F041154D0F46804600241F
:100CA00005F108060EE000BF28FA04F0C00735F889
:100CB000141056F8240018D05FF00102FFF767FB0C
:100CC000641CE4B2BC42EFD301220A4D94032146D6
:100CD0002846FFF75CFB0120FFF752FA2146284621
:100CE000BDE8F0410022FFF752BB0022E6E700001A
:100CF000000000200010014010B5044600224FF40F
:100D000000510748FFF743FB20090421FFF7C2FF0A
:100D100004F00F00BDE810400421FFF7BBBF000046
:100D20000010014010B50446012251030648FFF7A8
:100D30002EFB20090421FFF7ADFF04F00F00BDE8F2
:100D400010400421FFF7A6BF001001402DE9F0413B
:100D50002D4C0A2504F10C066068B0FBF5F0305C00
:100D6000FFF75CFF0122DFF8A480570339464046B5
:100D7000FFF70DFB0120FFF703FA0022394640463A
:100D8000FFF705FB6068B0FBF5F105FB1100305C77
:100D9000FFF744FF0122170339464046FFF7F7FAF1
:100DA0000120FFF7EDF9002239464046FFF7EFFA40
:100DB0006068B0FBF5F0305CFFF730FF0122D7032D
:100DC00039464046FFF7E3FA0120FFF7D9F9002240
:100DD00039464046FFF7DBFA6068B0FBF5F105FBEA
:100DE0001100305CFFF71AFF0122940321464046B0
:100DF000FFF7CDFA0120FFF7C3F900222146404654
:100E0000FFF7C5FABDE8F08118000020000C014092
:100E10002DE9F0412E4C0A2504F10C066068C01E35
:100E2000B0FBF5F0305CFFF7F9FE0122DFF8A4809B
:100E3000570339464046FFF7AAFA0120FFF7A0F909
:100E4000002239464046FFF7A2FA6068C01EB0FB98
:100E5000F5F105FB1100305CFFF7E0FE01221703FE
:100E600039464046FFF793FA0120FFF789F900223F
:100E700039464046FFF78BFA6068B0FBF5F0305C0E
:100E8000FFF7CCFE0122D70339464046FFF77FFA31
:100E90000120FFF775F9002239464046FFF777FA3F
:100EA0006068B0FBF5F105FB1100305CFFF7B6FEA2
:100EB0000122940321464046FFF769FA0120FFF71B
:100EC0005FF9002221464046FFF761FABDE8F08154
:100ED00018000020000C01402DE9F0412E4C0A259D
:100EE00004F10C066068C01EB0FBF5F0305CFFF743
:100EF00095FE0122DFF8A480D70339464046FFF76C
:100F000046FA0120FFF73CF9002239464046FFF738
:100F10003EFA6068C01EB0FBF5F105FB1100305CC5
:100F2000FFF77CFE0122970339464046FFF72FFA70
:100F30000120FFF725F9002239464046FFF727FA3E
:100F40006068B0FBF5F0305CFFF768FE01225703E4
:100F500039464046FFF71BFA0120FFF711F900223E
:100F600039464046FFF713FA6068B0FBF5F105FB20
:100F70001100305CFFF752FE012214032146404667
:100F8000FFF705FA0120FFF7FBF800222146404653
:100F9000FFF7FDF9BDE8F08118000020000C0140CA
:100FA000FFF708FAFFF7F9FCFFF7EEFDFFF78EFDFC
:100FB00001210520FFF770FDFEA0FFF778FD00215D
:100FC0000846FFF769FDFDA0FFF771FDFF4D4FF0EB
:100FD000000A4FF4006B4FF48076FD4CFD4F4FF448
:100FE000806820212846FFF7CDF900287ED1D14620
:100FF0005046DBE031462846FFF7C4F9002876D09A
:101000001E20606031462846FFF7BCF900286FD0EB
:10101000002259462846FFF7BAF9002241462846E1
:10102000FFF7B5F9012202212846FFF7B0F90122A6
:1010300011462846FFF7ABF9002280213846FFF71A
:10104000A6F9002240213846FFF7A1F9C4F808901C
:10105000FFF7DEFEA068401CA0604628F8D3606859
:10106000401E60600328CDD80320606031462846CA
:10107000FFF788F900287DD0002259462846FFF75F
:1010800086F9002241462846FFF781F90122022114
:101090002846FFF77CF9002201212846FFF777F95F
:1010A000012280213846FFF772F90022402138469C
:1010B000FFF76DF9C4F80890FFF748FEA068401CE0
:1010C000A0604628F8D36068401E6060CED11E2024
:1010D000606031462846FFF755F900287CD0012290
:1010E00059462846FFF753F9002202E063E06AE020
:1010F0006CE041462846FFF74AF9002202212846C3
:10110000FFF745F9002201212846FFF740F90022A8
:1011100080213846FFF73BF9012240213846FFF78E
:1011200036F9C4F8089000BFFFF7D6FEA068401C4F
:10113000A0604628F8D36068401E60600328C8D8C5
:101140000320606031462846FFF71CF9C8B300222F
:1011500059462846FFF71BF9012241462846FFF76A
:1011600016F9002202212846FFF711F90022012179
:10117000284600E02DE0FFF70AF9002280213846DA
:10118000FFF705F9012240213846FFF700F9C4F8BE
:10119000089000BFFFF7DAFDA068401CA060462859
:1011A000F8D36068401E6060CCD1401C606021684C
:1011B0008842FFF41FAF40212846FFF7E3F890B1C3
:1011C000F3E00CE008E000F049F9F4E700F046F93C
:1011D0004AE700F043F97AE700F040F9B0E700F0A1
:1011E0003DF96068E1E7D1465046D9E031462846EE
:1011F000FFF7C8F800287CD02D20606031462846D3
:10120000FFF7C0F8002875D0002259462846FFF79E
:10121000BEF8002241462846FFF7B9F80122022114
:101220002846FFF7B4F8012211462846FFF7AFF829
:10123000002280213846FFF7AAF8002240213846D4
:10124000FFF7A5F8C4F80890FFF7E2FDA068401C7E
:10125000A0604628F8D36068401E60600328CDD89F
:101260000320606031462846FFF78CF800287DD0C7
:10127000002259462846FFF78AF8002241462846B0
:10128000FFF785F8012202212846FFF780F80022A7
:1012900001212846FFF77BF8012280213846FFF71D
:1012A00076F8002240213846FFF771F8C4F808901C
:1012B000FFF74CFDA068401CA0604628F8D360688A
:1012C000401E6060CED12D20606031462846FFF779
:1012D00059F800286DD0012259462846FFF757F8E3
:1012E000002241462846FFF752F8002202212846F4
:1012F00001E09EE0A0E0FFF74AF800220121284625
:10130000FFF745F8002280213846FFF740F8012218
:1013100040213846FFF73BF8C4F80890FFF7DCFDA2
:10132000A068401CA0604628F8D36068401E60603A
:101330000328CAD80320606031462846FFF722F808
:10134000B0B3002259462846FFF721F80122414652
:101350002846FFF71CF8002202212846FFF717F85D
:10136000002201212846FFF712F800E067E0002282
:1013700080213846FFF70BF8012240213846FFF75D
:1013800006F8C4F8089000BFFFF7E0FCA068401C16
:10139000A0604628F8D36068401E6060CCD1401C35
:1013A000606021688842FFF421AF8021284613E065
:1013B0004BE047E04E484F4D203400002044454E5E
:1013C000204749414F2054484F4E4700000C0140F0
:1013D0001800002000080140FEF7D4FF00287FF429
:1013E00000AE0A204FF4FA79606031462846FEF7D5
:1013F000C9FF70B3012241462846FEF7C8FF01220B
:1014000080213846FEF7C3FF4846FEF7B9FE0022AA
:1014100041462846FEF7BBFF002280213846FEF7F2
:10142000B6FF4846FEF7ACFE6068401C6060DCD149
:10143000D7E500F013F8B8E700F010F810E700F077
:101440000DF840E700F00AF874E700F007F860686C
:10145000A5E7FFE700F002F8C3E5000070B51C4CFB
:1014600000224FF400612046FEF791FF0022211573
:101470002046FEF78CFF002202212046FEF787FF60
:10148000002201212046FEF782FF124D002280211A
:101490002846FEF77CFF002240212846FEF777FF12
:1014A00000224FF480412046FEF771FF00224FF4E6
:1014B00000412046FEF76BFF0022A1142046FEF7F4
:1014C00066FF002261142046FEF761FF70BD000038
:1014D000000C014000080140000000000000000076
:1014E000010203040607080908150008000000208F
:1014F00040000000FC0B00084815000840000020D8
:10150000000400000C0C00080800040002000100A8
:1015100000080140000801400008014000080140A7
:10152000E80300000000000000000000C0F9A4B0C3
:10153000999282F8809000000100000010000000E5
:08154000000000000024F4008B
:04000005080000ED02
:00000001FF
